:04000000C0EF00F05D
:08000800046ED8CF05F0E0CF33
:1000100006F00001E9CF0CF0EACF07F0E1CF08F0DD
:10002000E2CF09F0D9CF0AF0DACF0BF0F3CF12F01C
:10003000F4CF13F0FACF14F000C00EF001C00FF0AF
:1000400002C010F003C011F0F2A82AEF00F0F2B2E3
:100050005DEF00F00EC000F00FC001F010C002F024
:1000600011C003F00CC0E9FF07C0EAFF078E08C00B
:10007000E1FF09C0E2FF0AC0D9FF0BC0DAFF12C0DE
:10008000F3FF13C0F4FF14C0FAFF045006C0E0FFF2
:1000900005C0D8FF1000F2CF0DF0F29EF76AB00F46
:1000A000F66E000EF7220900F5500DBEF28E12001A
:1000B000C0F9A4B0999282F880901770F2922AEF5A
:1000C00000F01650500802E2828601D08296165047
:1000D000630803E2166AD76AD66A12001A50016AE8
:1000E000195C03E219C000F00CD0006A080E1B6E08
:1000F000193600361A50005CD8B0006E01361B2E3F
:10010000F7D71200EA6A190EE96EEF500DE0060EFD
:10011000016E006A002EFED7012EFBD77B0E006E0B
:10012000002EFED7EF2EF3D7120016C019F00A0EDC
:100130001A6ED4DF036A0050F2CF19F0F29EABDFE3
:1001400019BEF28E836E82808292010E196EDADF02
:1001500016C019F00A0E1A6EC1DF036A0150F2CF01
:1001600019F0F29E98DF19BEF28E836E8350C0089C
:1001700001E1836882828290010E196EC3DF120052
:10018000F86AD09E078E1790C150C00B0F09C16E40
:10019000070EB46E000E956EC00E946EFF0E926E3A
:1001A000A80ED56ED76AD66AC00EF212F288F18C0C
:1001B000D58E829A8294D650166E83DF000E80B858
:1001C000010E1A6E000E17A0010E1A1403E08284AD
:1001D000ACDFF4D7AADF17A01BD0D59E828AA5DF9B
:1001E00082AC12D0186A18500A0803E39EDF182A5E
:1001F000FAD782AC09D0827482A402D0162A61DFB9
:1002000082AC02D092DFFCD7D76A16C0D6FFE3D704
:04021000CFD7030041
:020000040030CA
:0E00000000C21E1E008781000FC00FE00F40DF
:00000001FF
;PIC18F4520
;CRC=A782  CREATED="26-Apr-21 04:27"
