:04000000CCEF00F051
:08000800046ED8CF05F0E0CF33
:1000100006F00001E9CF0CF0EACF07F0E1CF08F0DD
:10002000E2CF09F0D9CF0AF0DACF0BF0F3CF12F01C
:10003000F4CF13F0FACF14F000C00EF001C00FF0AF
:1000400002C010F003C011F0F2A82AEF00F0F2B2E3
:100050005DEF00F00EC000F00FC001F010C002F024
:1000600011C003F00CC0E9FF07C0EAFF078E08C00B
:10007000E1FF09C0E2FF0AC0D9FF0BC0DAFF12C0DE
:10008000F3FF13C0F4FF14C0FAFF045006C0E0FFF2
:1000900005C0D8FF1000F2CF0DF0F29EF76AB00F46
:1000A000F66E000EF7220900F5500DBEF28E12001A
:1000B000C0F9A4B0999282F880901770F2922AEF5A
:1000C00000F01650190A07E0190A08E00F0A0AE0C2
:1000D0001C0A0CE00ED0166AD76AD66A8284829611
:1000E000829807D082948286829803D082948296E6
:1000F000828812001A50016A195C03E219C000F0EC
:100100000CD0006A080E1B6E193600361A50005CBF
:10011000D8B0006E01361B2EF7D71200EA6A190E0E
:10012000E96EEF500DE0060E016E006A002EFED75C
:10013000012EFBD77B0E006E002EFED7EF2EF3D7DD
:10014000120016C019F00A0E1A6ED4DF036A0050AE
:10015000F2CF19F0F29E9FDF19BEF28E836E82807D
:100160008292010E196EDADF16C019F00A0E1A6EAD
:10017000C1DF036A0150F2CF19F0F29E8CDF19BE85
:10018000F28E836E8350C00801E183688282829080
:10019000010E196EC3DF1200F86AD09E078E179009
:1001A000C150C00B0F09C16E070EB46EFF0E936EE7
:1001B000000E956E400E946EFF0E926EA80ED56ED8
:1001C000D76AD66AC00EF212F288F18CD58E829A66
:1001D000829ED650166E75DF000E80B8010E1A6E24
:1001E000000E17A0010E1A1403E0828EAADFF4D7C6
:1001F000A8DF17A01BD0D59E828AA3DF81A212D0D0
:10020000186A18500A0803E39CDF182AFAD781A25B
:1002100009D0827E82AE02D0162A53DF81A202D09C
:1002200090DFFCD7D76A16C0D6FFE3D7CFD703003D
:020000040030CA
:0E00000000C21E1E008781000FC00FE00F40DF
:00000001FF
;PIC18F4520
;CRC=F289  CREATED="07-May-21 09:16"
